{
  "contractName": "Exchange",
  "abi": [
    {
      "inputs": [],
      "stateMutability": "nonpayable",
      "type": "constructor"
    },
    {
      "inputs": [
        {
          "internalType": "uint256",
          "name": "",
          "type": "uint256"
        }
      ],
      "name": "vaults",
      "outputs": [
        {
          "internalType": "address",
          "name": "_from",
          "type": "address"
        },
        {
          "internalType": "address",
          "name": "_from_token",
          "type": "address"
        },
        {
          "internalType": "uint256",
          "name": "_from_count",
          "type": "uint256"
        },
        {
          "internalType": "address",
          "name": "_to",
          "type": "address"
        },
        {
          "internalType": "address",
          "name": "_to_token",
          "type": "address"
        },
        {
          "internalType": "uint256",
          "name": "_to_count",
          "type": "uint256"
        }
      ],
      "stateMutability": "view",
      "type": "function",
      "constant": true
    },
    {
      "inputs": [],
      "name": "vaultsCount",
      "outputs": [
        {
          "internalType": "uint256",
          "name": "",
          "type": "uint256"
        }
      ],
      "stateMutability": "view",
      "type": "function",
      "constant": true
    },
    {
      "inputs": [
        {
          "internalType": "address",
          "name": "from",
          "type": "address"
        },
        {
          "internalType": "address",
          "name": "from_token",
          "type": "address"
        },
        {
          "internalType": "uint256",
          "name": "from_count",
          "type": "uint256"
        },
        {
          "internalType": "address",
          "name": "to",
          "type": "address"
        },
        {
          "internalType": "address",
          "name": "to_token",
          "type": "address"
        },
        {
          "internalType": "uint256",
          "name": "to_count",
          "type": "uint256"
        }
      ],
      "name": "createVault",
      "outputs": [
        {
          "internalType": "uint256",
          "name": "",
          "type": "uint256"
        }
      ],
      "stateMutability": "nonpayable",
      "type": "function"
    },
    {
      "inputs": [
        {
          "internalType": "uint256",
          "name": "vaultId",
          "type": "uint256"
        }
      ],
      "name": "getVault",
      "outputs": [
        {
          "internalType": "address",
          "name": "",
          "type": "address"
        }
      ],
      "stateMutability": "view",
      "type": "function",
      "constant": true
    },
    {
      "inputs": [
        {
          "internalType": "uint256",
          "name": "vaultId",
          "type": "uint256"
        }
      ],
      "name": "swapTokens",
      "outputs": [],
      "stateMutability": "nonpayable",
      "type": "function"
    }
  ],
  "bytecode": "0x608060405234801561001057600080fd5b5060008081905550610a04806100276000396000f3fe608060405234801561001057600080fd5b50600436106100575760003560e01c806326e00cb41461005c578063889777381461008c5780638c64ea4a146100aa5780639403b634146100df578063fe784eaa1461010f575b600080fd5b61007660048036038101906100719190610702565b61012b565b60405161008391906108ae565b60405180910390f35b6100946102e3565b6040516100a191906108ae565b60405180910390f35b6100c460048036038101906100bf91906107b4565b6102e9565b6040516100d69695949392919061084d565b60405180910390f35b6100f960048036038101906100f491906107b4565b6103a5565b60405161010691906107fb565b60405180910390f35b610129600480360381019061012491906107b4565b6103e5565b005b600080600081548092919061013f90610911565b919050555086600160008054815260200190815260200160002060000160006101000a81548173ffffffffffffffffffffffffffffffffffffffff021916908373ffffffffffffffffffffffffffffffffffffffff16021790555085600160008054815260200190815260200160002060010160006101000a81548173ffffffffffffffffffffffffffffffffffffffff021916908373ffffffffffffffffffffffffffffffffffffffff1602179055508460016000805481526020019081526020016000206002018190555083600160008054815260200190815260200160002060030160006101000a81548173ffffffffffffffffffffffffffffffffffffffff021916908373ffffffffffffffffffffffffffffffffffffffff16021790555082600160008054815260200190815260200160002060040160006101000a81548173ffffffffffffffffffffffffffffffffffffffff021916908373ffffffffffffffffffffffffffffffffffffffff1602179055508160016000805481526020019081526020016000206005018190555060005490509695505050505050565b60005481565b60016020528060005260406000206000915090508060000160009054906101000a900473ffffffffffffffffffffffffffffffffffffffff16908060010160009054906101000a900473ffffffffffffffffffffffffffffffffffffffff16908060020154908060030160009054906101000a900473ffffffffffffffffffffffffffffffffffffffff16908060040160009054906101000a900473ffffffffffffffffffffffffffffffffffffffff16908060050154905086565b60006001600083815260200190815260200160002060000160009054906101000a900473ffffffffffffffffffffffffffffffffffffffff169050919050565b6000600160008381526020019081526020016000206040518060c00160405290816000820160009054906101000a900473ffffffffffffffffffffffffffffffffffffffff1673ffffffffffffffffffffffffffffffffffffffff1673ffffffffffffffffffffffffffffffffffffffff1681526020016001820160009054906101000a900473ffffffffffffffffffffffffffffffffffffffff1673ffffffffffffffffffffffffffffffffffffffff1673ffffffffffffffffffffffffffffffffffffffff168152602001600282015481526020016003820160009054906101000a900473ffffffffffffffffffffffffffffffffffffffff1673ffffffffffffffffffffffffffffffffffffffff1673ffffffffffffffffffffffffffffffffffffffff1681526020016004820160009054906101000a900473ffffffffffffffffffffffffffffffffffffffff1673ffffffffffffffffffffffffffffffffffffffff1673ffffffffffffffffffffffffffffffffffffffff16815260200160058201548152505090506000816020015190506000826080015190508073ffffffffffffffffffffffffffffffffffffffff166323b872dd8460000151856060015186604001516040518463ffffffff1660e01b81526004016105ce93929190610816565b602060405180830381600087803b1580156105e857600080fd5b505af11580156105fc573d6000803e3d6000fd5b505050506040513d601f19601f82011682018060405250810190610620919061078b565b508173ffffffffffffffffffffffffffffffffffffffff166323b872dd846060015185600001518660a001516040518463ffffffff1660e01b815260040161066a93929190610816565b602060405180830381600087803b15801561068457600080fd5b505af1158015610698573d6000803e3d6000fd5b505050506040513d601f19601f820116820180604052508101906106bc919061078b565b5050505050565b6000813590506106d281610989565b92915050565b6000815190506106e7816109a0565b92915050565b6000813590506106fc816109b7565b92915050565b60008060008060008060c0878903121561071b57600080fd5b600061072989828a016106c3565b965050602061073a89828a016106c3565b955050604061074b89828a016106ed565b945050606061075c89828a016106c3565b935050608061076d89828a016106c3565b92505060a061077e89828a016106ed565b9150509295509295509295565b60006020828403121561079d57600080fd5b60006107ab848285016106d8565b91505092915050565b6000602082840312156107c657600080fd5b60006107d4848285016106ed565b91505092915050565b6107e6816108c9565b82525050565b6107f581610907565b82525050565b600060208201905061081060008301846107dd565b92915050565b600060608201905061082b60008301866107dd565b61083860208301856107dd565b61084560408301846107ec565b949350505050565b600060c08201905061086260008301896107dd565b61086f60208301886107dd565b61087c60408301876107ec565b61088960608301866107dd565b61089660808301856107dd565b6108a360a08301846107ec565b979650505050505050565b60006020820190506108c360008301846107ec565b92915050565b60006108d4826108e7565b9050919050565b60008115159050919050565b600073ffffffffffffffffffffffffffffffffffffffff82169050919050565b6000819050919050565b600061091c82610907565b91507fffffffffffffffffffffffffffffffffffffffffffffffffffffffffffffffff82141561094f5761094e61095a565b5b600182019050919050565b7f4e487b7100000000000000000000000000000000000000000000000000000000600052601160045260246000fd5b610992816108c9565b811461099d57600080fd5b50565b6109a9816108db565b81146109b457600080fd5b50565b6109c081610907565b81146109cb57600080fd5b5056fea2646970667358221220efab2722a37e4ce4a2db96a51e50940d6d84f87f94eaa7d909a6bc518e61a30964736f6c63430008010033",
  "immutableReferences": {},
  "source": "pragma solidity >=0.7.0 <0.9.0;\n\nimport \"./ERC20/IERC20.sol\";\n\ncontract Exchange {\n\n    constructor() {\n        vaultsCount = 0;\n    }\n\n    struct Offer {\n        address _from;\n        address _from_token;\n        uint256 _from_count;\n        address _to;\n        address _to_token;\n        uint256 _to_count;\n    }\n\n    uint256 public vaultsCount;\n    mapping(uint256 => Offer) public vaults;\n\n    function createVault(address from, address from_token, uint256 from_count, address to, address to_token, uint256 to_count) public returns(uint256) {\n        vaultsCount++;\n\n        vaults[vaultsCount]._from = from;\n        vaults[vaultsCount]._from_token = from_token;\n        vaults[vaultsCount]._from_count = from_count;\n        vaults[vaultsCount]._to = to;\n        vaults[vaultsCount]._to_token = to_token;\n        vaults[vaultsCount]._to_count = to_count;\n\n        return vaultsCount;\n    }\n\n    function getVault(uint256 vaultId) public view returns (address) {\n        return vaults[vaultId]._from;\n    }\n\n    function swapTokens(uint256 vaultId) public  {\n        Offer memory offer = vaults[vaultId];\n\n        IERC20 token1 = IERC20(offer._from_token);\n        IERC20 token2 = IERC20(offer._to_token);\n        token2.transferFrom(offer._from, offer._to, offer._from_count);\n        token1.transferFrom(offer._to, offer._from, offer._to_count);\n\n    }\n}",
  "sourcePath": "/Users/kirill/Desktop/Ethereum/contracts/Exchange.sol",
  "compiler": {
    "name": "solc",
    "version": "0.8.1+commit.df193b15.Emscripten.clang"
  },
  "schemaVersion": "3.4.0",
  "updatedAt": "2021-05-12T10:11:30.669Z",
  "networkType": "ethereum",
  "devdoc": {
    "kind": "dev",
    "methods": {},
    "version": 1
  },
  "userdoc": {
    "kind": "user",
    "methods": {},
    "version": 1
  }
}