{
  "contractName": "Locker",
  "abi": [
    {
      "inputs": [
        {
          "internalType": "uint256",
          "name": "targetTimestamp",
          "type": "uint256"
        },
        {
          "internalType": "address",
          "name": "tokenContract",
          "type": "address"
        },
        {
          "internalType": "uint256",
          "name": "tokenCount",
          "type": "uint256"
        }
      ],
      "name": "lock",
      "outputs": [
        {
          "internalType": "uint256",
          "name": "",
          "type": "uint256"
        }
      ],
      "stateMutability": "nonpayable",
      "type": "function"
    },
    {
      "inputs": [
        {
          "internalType": "uint256",
          "name": "targetTimestamp",
          "type": "uint256"
        }
      ],
      "name": "lockEth",
      "outputs": [],
      "stateMutability": "payable",
      "type": "function",
      "payable": true
    },
    {
      "inputs": [
        {
          "internalType": "uint256",
          "name": "vaultId",
          "type": "uint256"
        }
      ],
      "name": "claimByVaultId",
      "outputs": [
        {
          "internalType": "bool",
          "name": "",
          "type": "bool"
        }
      ],
      "stateMutability": "nonpayable",
      "type": "function"
    },
    {
      "inputs": [
        {
          "internalType": "address",
          "name": "userAddress",
          "type": "address"
        }
      ],
      "name": "getUserVaults",
      "outputs": [
        {
          "components": [
            {
              "components": [
                {
                  "internalType": "address",
                  "name": "tokenAddress",
                  "type": "address"
                },
                {
                  "internalType": "bool",
                  "name": "nativeToken",
                  "type": "bool"
                },
                {
                  "components": [
                    {
                      "internalType": "uint256",
                      "name": "tokensCount",
                      "type": "uint256"
                    },
                    {
                      "internalType": "uint256",
                      "name": "releaseTargetTimestamp",
                      "type": "uint256"
                    },
                    {
                      "internalType": "bool",
                      "name": "claimed",
                      "type": "bool"
                    }
                  ],
                  "internalType": "struct Locker.ReleaseCheckpoint[]",
                  "name": "checkpoints",
                  "type": "tuple[]"
                }
              ],
              "internalType": "struct Locker.VestedTokenVault[]",
              "name": "userVaults",
              "type": "tuple[]"
            }
          ],
          "internalType": "struct Locker.UserLocks",
          "name": "",
          "type": "tuple"
        }
      ],
      "stateMutability": "view",
      "type": "function",
      "constant": true
    }
  ],
  "bytecode": "0x608060405234801561001057600080fd5b50611670806100206000396000f3fe60806040526004361061003f5760003560e01c80631e5e285c14610044578063823758ed14610081578063cf27cfc41461009d578063e7f3c69c146100da575b600080fd5b34801561005057600080fd5b5061006b60048036038101906100669190610dfc565b610117565b6040516100789190611201565b60405180910390f35b61009b60048036038101906100969190610dfc565b61041d565b005b3480156100a957600080fd5b506100c460048036038101906100bf9190610e25565b6106e3565b6040516100d1919061133e565b60405180910390f35b3480156100e657600080fd5b5061010160048036038101906100fc9190610daa565b610ba2565b60405161010e919061131c565b60405180910390f35b60008082101561015c576040517f08c379a00000000000000000000000000000000000000000000000000000000081526004016101539061123c565b60405180910390fd5b60008060003373ffffffffffffffffffffffffffffffffffffffff1673ffffffffffffffffffffffffffffffffffffffff16815260200190815260200160002060000183815481106101d7577f4e487b7100000000000000000000000000000000000000000000000000000000600052603260045260246000fd5b90600052602060002090600202019050600081600101600081548110610226577f4e487b7100000000000000000000000000000000000000000000000000000000600052603260045260246000fd5b90600052602060002090600302019050600015158160020160009054906101000a900460ff1615151461028e576040517f08c379a00000000000000000000000000000000000000000000000000000000081526004016102859061129c565b60405180910390fd5b42816001015411156102d5576040517f08c379a00000000000000000000000000000000000000000000000000000000081526004016102cc9061125c565b60405180910390fd5b8160000160009054906101000a900473ffffffffffffffffffffffffffffffffffffffff1673ffffffffffffffffffffffffffffffffffffffff1663a9059cbb3383600001546040518363ffffffff1660e01b81526004016103389291906111d8565b602060405180830381600087803b15801561035257600080fd5b505af192505050801561038357506040513d601f19601f820116820180604052508101906103809190610dd3565b60015b6103f4573d80600081146103b3576040519150601f19603f3d011682016040523d82523d6000602084013e6103b8565b606091505b506040517f08c379a00000000000000000000000000000000000000000000000000000000081526004016103eb9061121c565b60405180910390fd5b60018260020160006101000a81548160ff02191690831515021790555060019350505050919050565b42811161045f576040517f08c379a0000000000000000000000000000000000000000000000000000000008152600401610456906112dc565b60405180910390fd5b6000803373ffffffffffffffffffffffffffffffffffffffff1673ffffffffffffffffffffffffffffffffffffffff16815260200190815260200160002060000160018160018154018082558091505003906000526020600020905050600060016000803373ffffffffffffffffffffffffffffffffffffffff1673ffffffffffffffffffffffffffffffffffffffff1681526020019081526020016000206000018054905061050f91906113dc565b90506000803373ffffffffffffffffffffffffffffffffffffffff1673ffffffffffffffffffffffffffffffffffffffff168152602001908152602001600020600001818154811061058a577f4e487b7100000000000000000000000000000000000000000000000000000000600052603260045260246000fd5b90600052602060002090600202016001016001816001815401808255809150500390600052602060002090505060008060003373ffffffffffffffffffffffffffffffffffffffff1673ffffffffffffffffffffffffffffffffffffffff1681526020019081526020016000206000018281548110610632577f4e487b7100000000000000000000000000000000000000000000000000000000600052603260045260246000fd5b90600052602060002090600202019050600081600101600081548110610681577f4e487b7100000000000000000000000000000000000000000000000000000000600052603260045260246000fd5b9060005260206000209060030201905060018260000160146101000a81548160ff02191690831515021790555034816000018190555083816001018190555060008160020160006101000a81548160ff02191690831515021790555050505050565b6000428411610727576040517f08c379a000000000000000000000000000000000000000000000000000000000815260040161071e906112dc565b60405180910390fd5b6000821161076a576040517f08c379a0000000000000000000000000000000000000000000000000000000008152600401610761906112fc565b60405180910390fd5b600073ffffffffffffffffffffffffffffffffffffffff168373ffffffffffffffffffffffffffffffffffffffff1614156107da576040517f08c379a00000000000000000000000000000000000000000000000000000000081526004016107d19061127c565b60405180910390fd5b6000803373ffffffffffffffffffffffffffffffffffffffff1673ffffffffffffffffffffffffffffffffffffffff16815260200190815260200160002060000160018160018154018082558091505003906000526020600020905050600060016000803373ffffffffffffffffffffffffffffffffffffffff1673ffffffffffffffffffffffffffffffffffffffff1681526020019081526020016000206000018054905061088a91906113dc565b90506000803373ffffffffffffffffffffffffffffffffffffffff1673ffffffffffffffffffffffffffffffffffffffff1681526020019081526020016000206000018181548110610905577f4e487b7100000000000000000000000000000000000000000000000000000000600052603260045260246000fd5b90600052602060002090600202016001016001816001815401808255809150500390600052602060002090505060008060003373ffffffffffffffffffffffffffffffffffffffff1673ffffffffffffffffffffffffffffffffffffffff16815260200190815260200160002060000182815481106109ad577f4e487b7100000000000000000000000000000000000000000000000000000000600052603260045260246000fd5b906000526020600020906002020190506000816001016000815481106109fc577f4e487b7100000000000000000000000000000000000000000000000000000000600052603260045260246000fd5b90600052602060002090600302019050858260000160006101000a81548173ffffffffffffffffffffffffffffffffffffffff021916908373ffffffffffffffffffffffffffffffffffffffff16021790555060008260000160146101000a81548160ff02191690831515021790555084816000018190555086816001018190555060008160020160006101000a81548160ff0219169083151502179055508573ffffffffffffffffffffffffffffffffffffffff166323b872dd3330886040518463ffffffff1660e01b8152600401610ad8939291906111a1565b602060405180830381600087803b158015610af257600080fd5b505af1925050508015610b2357506040513d601f19601f82011682018060405250810190610b209190610dd3565b60015b610b94573d8060008114610b53576040519150601f19603f3d011682016040523d82523d6000602084013e610b58565b606091505b506040517f08c379a0000000000000000000000000000000000000000000000000000000008152600401610b8b906112bc565b60405180910390fd5b839450505050509392505050565b610baa610d58565b6000808373ffffffffffffffffffffffffffffffffffffffff1673ffffffffffffffffffffffffffffffffffffffff16815260200190815260200160002060405180602001604052908160008201805480602002602001604051908101604052809291908181526020016000905b82821015610d4957838290600052602060002090600202016040518060600160405290816000820160009054906101000a900473ffffffffffffffffffffffffffffffffffffffff1673ffffffffffffffffffffffffffffffffffffffff1673ffffffffffffffffffffffffffffffffffffffff1681526020016000820160149054906101000a900460ff1615151515815260200160018201805480602002602001604051908101604052809291908181526020016000905b82821015610d32578382906000526020600020906003020160405180606001604052908160008201548152602001600182015481526020016002820160009054906101000a900460ff16151515158152505081526020019060010190610cd1565b505050508152505081526020019060010190610c18565b50505050815250509050919050565b6040518060200160405280606081525090565b600081359050610d7a816115f5565b92915050565b600081519050610d8f8161160c565b92915050565b600081359050610da481611623565b92915050565b600060208284031215610dbc57600080fd5b6000610dca84828501610d6b565b91505092915050565b600060208284031215610de557600080fd5b6000610df384828501610d80565b91505092915050565b600060208284031215610e0e57600080fd5b6000610e1c84828501610d95565b91505092915050565b600080600060608486031215610e3a57600080fd5b6000610e4886828701610d95565b9350506020610e5986828701610d6b565b9250506040610e6a86828701610d95565b9150509250925092565b6000610e8083836110c7565b60608301905092915050565b6000610e988383611133565b905092915050565b610ea981611410565b82525050565b610eb881611410565b82525050565b6000610ec982611379565b610ed381856113a9565b9350610ede83611359565b8060005b83811015610f0f578151610ef68882610e74565b9750610f018361138f565b925050600181019050610ee2565b5085935050505092915050565b6000610f2782611384565b610f3181856113ba565b935083602082028501610f4385611369565b8060005b85811015610f7f5784840389528151610f608582610e8c565b9450610f6b8361139c565b925060208a01995050600181019050610f47565b50829750879550505050505092915050565b610f9a81611422565b82525050565b610fa981611422565b82525050565b6000610fbc600e836113cb565b9150610fc782611487565b602082019050919050565b6000610fdf601a836113cb565b9150610fea826114b0565b602082019050919050565b6000611002601f836113cb565b915061100d826114d9565b602082019050919050565b60006110256016836113cb565b915061103082611502565b602082019050919050565b6000611048600f836113cb565b91506110538261152b565b602082019050919050565b600061106b6012836113cb565b915061107682611554565b602082019050919050565b600061108e6019836113cb565b91506110998261157d565b602082019050919050565b60006110b16023836113cb565b91506110bc826115a6565b604082019050919050565b6060820160008201516110dd6000850182611183565b5060208201516110f06020850182611183565b5060408201516111036040850182610f91565b50505050565b600060208301600083015184820360008601526111268282610f1c565b9150508091505092915050565b600060608301600083015161114b6000860182610ea0565b50602083015161115e6020860182610f91565b50604083015184820360408601526111768282610ebe565b9150508091505092915050565b61118c8161144e565b82525050565b61119b8161144e565b82525050565b60006060820190506111b66000830186610eaf565b6111c36020830185610eaf565b6111d06040830184611192565b949350505050565b60006040820190506111ed6000830185610eaf565b6111fa6020830184611192565b9392505050565b60006020820190506112166000830184610fa0565b92915050565b6000602082019050818103600083015261123581610faf565b9050919050565b6000602082019050818103600083015261125581610fd2565b9050919050565b6000602082019050818103600083015261127581610ff5565b9050919050565b6000602082019050818103600083015261129581611018565b9050919050565b600060208201905081810360008301526112b58161103b565b9050919050565b600060208201905081810360008301526112d58161105e565b9050919050565b600060208201905081810360008301526112f581611081565b9050919050565b60006020820190508181036000830152611315816110a4565b9050919050565b600060208201905081810360008301526113368184611109565b905092915050565b60006020820190506113536000830184611192565b92915050565b6000819050602082019050919050565b6000819050602082019050919050565b600081519050919050565b600081519050919050565b6000602082019050919050565b6000602082019050919050565b600082825260208201905092915050565b600082825260208201905092915050565b600082825260208201905092915050565b60006113e78261144e565b91506113f28361144e565b92508282101561140557611404611458565b5b828203905092915050565b600061141b8261142e565b9050919050565b60008115159050919050565b600073ffffffffffffffffffffffffffffffffffffffff82169050919050565b6000819050919050565b7f4e487b7100000000000000000000000000000000000000000000000000000000600052601160045260246000fd5b7f5472616e73666572206572726f72000000000000000000000000000000000000600082015250565b7f7661756c7449642073686f756c6420626520706f736974697665000000000000600082015250565b7f43616e6e6f7420636c61696d206265666f726520746172676574206461746500600082015250565b7f546f6b656e20636f6e7472616374206973206e756c6c00000000000000000000600082015250565b7f416c726561647920636c61696d65640000000000000000000000000000000000600082015250565b7f4e6f7420616e20455243323020746f6b656e0000000000000000000000000000600082015250565b7f4461746520696e2074686520706173742073656c656374656400000000000000600082015250565b7f546f6b656e20636f756e74206d75737420626520706f736974697665206e756d60008201527f6265720000000000000000000000000000000000000000000000000000000000602082015250565b6115fe81611410565b811461160957600080fd5b50565b61161581611422565b811461162057600080fd5b50565b61162c8161144e565b811461163757600080fd5b5056fea2646970667358221220dac52d93fc5e90a658f0c88881dad5bab4b4e37a1c3866ec2c98d593d18e8a4364736f6c63430008010033",
  "immutableReferences": {},
  "source": "// SPDX-License-Identifier: MIT\n\npragma solidity >=0.7.0 <0.9.0;\n\nimport \"./ERC20/IERC20.sol\";\nimport \"./SafeMath.sol\";\npragma experimental ABIEncoderV2;\n\ncontract Locker {\n    using SafeMath for uint256;\n\n    struct ReleaseCheckpoint {\n        uint256 tokensCount;\n        uint256 releaseTargetTimestamp;\n        bool claimed;\n    }\n\n    struct VestedTokenVault {\n        address tokenAddress;\n        bool nativeToken;\n        ReleaseCheckpoint[] checkpoints;\n    }\n\n    struct UserLocks {\n        VestedTokenVault[] userVaults;\n    }\n\n    //every user has multiple vaults: he can store any token with different release schedules.\n    //Token might be duplicated, e.g. Vault1: USDC with 6 months lock + Vault2: USDC with 12 months lock\n    mapping(address => UserLocks) userLocks;\n\n    function lock(\n        uint256 targetTimestamp,\n        address tokenContract,\n        uint256 tokenCount\n    ) public returns (uint256) {\n        require(targetTimestamp > block.timestamp, \"Date in the past selected\");\n        require(tokenCount > 0, \"Token count must be positive number\");\n        require(tokenContract != address(0), \"Token contract is null\");\n\n        //push new element to user's vault and get it's index\n        userLocks[msg.sender].userVaults.push();\n        uint256 vaultIndex = userLocks[msg.sender].userVaults.length - 1;\n\n        //create release checkpoint to created vault\n        userLocks[msg.sender].userVaults[vaultIndex].checkpoints.push();\n\n        //get created user Vault by index\n        VestedTokenVault storage targetVault = userLocks[msg.sender].userVaults[\n            vaultIndex\n        ];\n\n        //get checkpoint, in this this case here will be only one element\n        ReleaseCheckpoint storage checkpoint = targetVault.checkpoints[0];\n\n        //fill input data\n        targetVault.tokenAddress = tokenContract;\n        targetVault.nativeToken = false;\n        checkpoint.tokensCount = tokenCount;\n        checkpoint.releaseTargetTimestamp = targetTimestamp;\n        checkpoint.claimed = false;\n\n        //transfer token to vault\n        try\n            IERC20(tokenContract).transferFrom(\n                msg.sender,\n                address(this),\n                tokenCount\n            )\n        returns (bool) {\n            return vaultIndex;\n        } catch (bytes memory) {\n            revert(\"Not an ERC20 token\");\n        }\n    }\n\n    function lockEth(uint256 targetTimestamp) public payable {\n        require(targetTimestamp > block.timestamp, \"Date in the past selected\");\n\n        //push new element to user's vault and get it's index\n        userLocks[msg.sender].userVaults.push();\n        uint256 vaultIndex = userLocks[msg.sender].userVaults.length - 1;\n\n        //create release checkpoint to created vault\n        userLocks[msg.sender].userVaults[vaultIndex].checkpoints.push();\n\n        //get created user Vault by index\n        VestedTokenVault storage targetVault = userLocks[msg.sender].userVaults[\n            vaultIndex\n        ];\n\n        //get checkpoint, in this this case here will be only one element\n        ReleaseCheckpoint storage checkpoint = targetVault.checkpoints[0];\n\n        targetVault.nativeToken = true;\n        checkpoint.tokensCount = msg.value;\n        checkpoint.releaseTargetTimestamp = targetTimestamp;\n        checkpoint.claimed = false;\n    }\n\n    // function lockWithLinearRelease(\n    //     uint256 targetBlockRelease,\n    //     address tokenContract,\n    //     uint256 tokenCount,\n    //     int16 checkpoints\n    // ) public {}\n\n    // function lockWithScheduledRelease(\n    //     address tokenContract,\n    //     bytes32[] memory checkpoints\n    // ) public {}\n\n    // function claimAll() public {}\n\n    // function claimToken(address token) public {}\n\n    function claimByVaultId(uint256 vaultId) public returns (bool) {\n        require(vaultId >= 0, \"vaultId should be positive\");\n\n        VestedTokenVault storage vault = userLocks[msg.sender].userVaults[\n            vaultId\n        ];\n        ReleaseCheckpoint storage checkpoint = vault.checkpoints[0];\n\n        require(checkpoint.claimed == false, \"Already claimed\");\n        require(\n            checkpoint.releaseTargetTimestamp <= block.timestamp,\n            \"Cannot claim before target date\"\n        );\n\n        try\n            IERC20(vault.tokenAddress).transfer(\n                msg.sender,\n                checkpoint.tokensCount\n            )\n        returns (bool) {\n            checkpoint.claimed = true;\n            return true;\n        } catch (bytes memory) {\n            revert(\"Transfer error\");\n        }\n    }\n\n    function getUserVaults(address userAddress)\n        public\n        view\n        returns (UserLocks memory)\n    {\n        return userLocks[userAddress];\n    }\n}\n",
  "sourcePath": "/Users/kirill/Desktop/Terra/frontend/ethereum/contracts/Locker.sol",
  "compiler": {
    "name": "solc",
    "version": "0.8.1+commit.df193b15.Emscripten.clang"
  },
  "schemaVersion": "3.4.0",
  "updatedAt": "2021-08-28T09:06:47.121Z",
  "networkType": "ethereum",
  "devdoc": {
    "kind": "dev",
    "methods": {},
    "version": 1
  },
  "userdoc": {
    "kind": "user",
    "methods": {},
    "version": 1
  }
}