{
  "contractName": "Locker",
  "abi": [
    {
      "inputs": [
        {
          "internalType": "uint256",
          "name": "targetTimestamp",
          "type": "uint256"
        },
        {
          "internalType": "address",
          "name": "tokenContract",
          "type": "address"
        },
        {
          "internalType": "uint256",
          "name": "tokenCount",
          "type": "uint256"
        }
      ],
      "name": "lock",
      "outputs": [
        {
          "internalType": "uint256",
          "name": "",
          "type": "uint256"
        }
      ],
      "stateMutability": "nonpayable",
      "type": "function"
    },
    {
      "inputs": [
        {
          "internalType": "uint256",
          "name": "targetBlockRelease",
          "type": "uint256"
        },
        {
          "internalType": "address",
          "name": "tokenContract",
          "type": "address"
        },
        {
          "internalType": "uint256",
          "name": "tokenCount",
          "type": "uint256"
        },
        {
          "internalType": "int16",
          "name": "checkpoints",
          "type": "int16"
        }
      ],
      "name": "lockWithLinearRelease",
      "outputs": [],
      "stateMutability": "nonpayable",
      "type": "function"
    },
    {
      "inputs": [
        {
          "internalType": "address",
          "name": "tokenContract",
          "type": "address"
        },
        {
          "internalType": "bytes32[]",
          "name": "checkpoints",
          "type": "bytes32[]"
        }
      ],
      "name": "lockWithScheduledRelease",
      "outputs": [],
      "stateMutability": "nonpayable",
      "type": "function"
    },
    {
      "inputs": [],
      "name": "claimAll",
      "outputs": [],
      "stateMutability": "nonpayable",
      "type": "function"
    },
    {
      "inputs": [
        {
          "internalType": "address",
          "name": "token",
          "type": "address"
        }
      ],
      "name": "claimToken",
      "outputs": [],
      "stateMutability": "nonpayable",
      "type": "function"
    },
    {
      "inputs": [
        {
          "internalType": "uint256",
          "name": "vaultId",
          "type": "uint256"
        }
      ],
      "name": "claimByVaultId",
      "outputs": [
        {
          "internalType": "bool",
          "name": "",
          "type": "bool"
        }
      ],
      "stateMutability": "nonpayable",
      "type": "function"
    },
    {
      "inputs": [
        {
          "internalType": "address",
          "name": "userAddress",
          "type": "address"
        }
      ],
      "name": "getUserVaults",
      "outputs": [
        {
          "components": [
            {
              "components": [
                {
                  "internalType": "address",
                  "name": "tokenAddress",
                  "type": "address"
                },
                {
                  "components": [
                    {
                      "internalType": "uint256",
                      "name": "tokensCount",
                      "type": "uint256"
                    },
                    {
                      "internalType": "uint256",
                      "name": "releaseTargetTimestamp",
                      "type": "uint256"
                    },
                    {
                      "internalType": "bool",
                      "name": "claimed",
                      "type": "bool"
                    }
                  ],
                  "internalType": "struct Locker.ReleaseCheckpoint[]",
                  "name": "checkpoints",
                  "type": "tuple[]"
                }
              ],
              "internalType": "struct Locker.VestedTokenVault[]",
              "name": "userVaults",
              "type": "tuple[]"
            }
          ],
          "internalType": "struct Locker.UserLocks",
          "name": "",
          "type": "tuple"
        }
      ],
      "stateMutability": "view",
      "type": "function",
      "constant": true
    }
  ],
  "bytecode": "0x608060405234801561001057600080fd5b50611645806100206000396000f3fe608060405234801561001057600080fd5b506004361061007d5760003560e01c8063d1058e591161005b578063d1058e59146100fe578063db09e1a814610108578063e7f3c69c14610124578063f5879433146101545761007d565b80631e5e285c1461008257806332f289cf146100b2578063cf27cfc4146100ce575b600080fd5b61009c60048036038101906100979190610c7a565b610170565b6040516100a991906110cf565b60405180910390f35b6100cc60048036038101906100c79190610bd4565b610476565b005b6100e860048036038101906100e39190610ca3565b610479565b6040516100f5919061120c565b60405180910390f35b61010661091b565b005b610122600480360381019061011d9190610bfd565b61091d565b005b61013e60048036038101906101399190610bd4565b610921565b60405161014b91906111ea565b60405180910390f35b61016e60048036038101906101699190610cf2565b610abc565b005b6000808210156101b5576040517f08c379a00000000000000000000000000000000000000000000000000000000081526004016101ac9061110a565b60405180910390fd5b60008060003373ffffffffffffffffffffffffffffffffffffffff1673ffffffffffffffffffffffffffffffffffffffff1681526020019081526020016000206000018381548110610230577f4e487b7100000000000000000000000000000000000000000000000000000000600052603260045260246000fd5b9060005260206000209060020201905060008160010160008154811061027f577f4e487b7100000000000000000000000000000000000000000000000000000000600052603260045260246000fd5b90600052602060002090600302019050600015158160020160009054906101000a900460ff161515146102e7576040517f08c379a00000000000000000000000000000000000000000000000000000000081526004016102de9061116a565b60405180910390fd5b428160010154111561032e576040517f08c379a00000000000000000000000000000000000000000000000000000000081526004016103259061112a565b60405180910390fd5b8160000160009054906101000a900473ffffffffffffffffffffffffffffffffffffffff1673ffffffffffffffffffffffffffffffffffffffff1663a9059cbb3383600001546040518363ffffffff1660e01b81526004016103919291906110a6565b602060405180830381600087803b1580156103ab57600080fd5b505af19250505080156103dc57506040513d601f19601f820116820180604052508101906103d99190610c51565b60015b61044d573d806000811461040c576040519150601f19603f3d011682016040523d82523d6000602084013e610411565b606091505b506040517f08c379a0000000000000000000000000000000000000000000000000000000008152600401610444906110ea565b60405180910390fd5b60018260020160006101000a81548160ff02191690831515021790555060019350505050919050565b50565b60004284116104bd576040517f08c379a00000000000000000000000000000000000000000000000000000000081526004016104b4906111aa565b60405180910390fd5b60008211610500576040517f08c379a00000000000000000000000000000000000000000000000000000000081526004016104f7906111ca565b60405180910390fd5b600073ffffffffffffffffffffffffffffffffffffffff168373ffffffffffffffffffffffffffffffffffffffff161415610570576040517f08c379a00000000000000000000000000000000000000000000000000000000081526004016105679061114a565b60405180910390fd5b6000803373ffffffffffffffffffffffffffffffffffffffff1673ffffffffffffffffffffffffffffffffffffffff16815260200190815260200160002060000160018160018154018082558091505003906000526020600020905050600060016000803373ffffffffffffffffffffffffffffffffffffffff1673ffffffffffffffffffffffffffffffffffffffff1681526020019081526020016000206000018054905061062091906112fb565b90506000803373ffffffffffffffffffffffffffffffffffffffff1673ffffffffffffffffffffffffffffffffffffffff168152602001908152602001600020600001818154811061069b577f4e487b7100000000000000000000000000000000000000000000000000000000600052603260045260246000fd5b90600052602060002090600202016001016001816001815401808255809150500390600052602060002090505060008060003373ffffffffffffffffffffffffffffffffffffffff1673ffffffffffffffffffffffffffffffffffffffff1681526020019081526020016000206000018281548110610743577f4e487b7100000000000000000000000000000000000000000000000000000000600052603260045260246000fd5b90600052602060002090600202019050600081600101600081548110610792577f4e487b7100000000000000000000000000000000000000000000000000000000600052603260045260246000fd5b90600052602060002090600302019050858260000160006101000a81548173ffffffffffffffffffffffffffffffffffffffff021916908373ffffffffffffffffffffffffffffffffffffffff16021790555084816000018190555086816001018190555060008160020160006101000a81548160ff0219169083151502179055508573ffffffffffffffffffffffffffffffffffffffff166323b872dd3330886040518463ffffffff1660e01b81526004016108519392919061106f565b602060405180830381600087803b15801561086b57600080fd5b505af192505050801561089c57506040513d601f19601f820116820180604052508101906108999190610c51565b60015b61090d573d80600081146108cc576040519150601f19603f3d011682016040523d82523d6000602084013e6108d1565b606091505b506040517f08c379a00000000000000000000000000000000000000000000000000000000081526004016109049061118a565b60405180910390fd5b839450505050509392505050565b565b5050565b610929610ac2565b6000808373ffffffffffffffffffffffffffffffffffffffff1673ffffffffffffffffffffffffffffffffffffffff16815260200190815260200160002060405180602001604052908160008201805480602002602001604051908101604052809291908181526020016000905b82821015610aad57838290600052602060002090600202016040518060400160405290816000820160009054906101000a900473ffffffffffffffffffffffffffffffffffffffff1673ffffffffffffffffffffffffffffffffffffffff1673ffffffffffffffffffffffffffffffffffffffff16815260200160018201805480602002602001604051908101604052809291908181526020016000905b82821015610a96578382906000526020600020906003020160405180606001604052908160008201548152602001600182015481526020016002820160009054906101000a900460ff16151515158152505081526020019060010190610a35565b505050508152505081526020019060010190610997565b50505050815250509050919050565b50505050565b6040518060200160405280606081525090565b6000610ae8610ae38461124c565b611227565b90508083825260208201905082856020860282011115610b0757600080fd5b60005b85811015610b375781610b1d8882610b95565b845260208401935060208301925050600181019050610b0a565b5050509392505050565b600081359050610b508161159c565b92915050565b600082601f830112610b6757600080fd5b8135610b77848260208601610ad5565b91505092915050565b600081519050610b8f816115b3565b92915050565b600081359050610ba4816115ca565b92915050565b600081359050610bb9816115e1565b92915050565b600081359050610bce816115f8565b92915050565b600060208284031215610be657600080fd5b6000610bf484828501610b41565b91505092915050565b60008060408385031215610c1057600080fd5b6000610c1e85828601610b41565b925050602083013567ffffffffffffffff811115610c3b57600080fd5b610c4785828601610b56565b9150509250929050565b600060208284031215610c6357600080fd5b6000610c7184828501610b80565b91505092915050565b600060208284031215610c8c57600080fd5b6000610c9a84828501610bbf565b91505092915050565b600080600060608486031215610cb857600080fd5b6000610cc686828701610bbf565b9350506020610cd786828701610b41565b9250506040610ce886828701610bbf565b9150509250925092565b60008060008060808587031215610d0857600080fd5b6000610d1687828801610bbf565b9450506020610d2787828801610b41565b9350506040610d3887828801610bbf565b9250506060610d4987828801610baa565b91505092959194509250565b6000610d618383610fa8565b60608301905092915050565b6000610d798383611014565b905092915050565b610d8a8161132f565b82525050565b610d998161132f565b82525050565b6000610daa82611298565b610db481856112c8565b9350610dbf83611278565b8060005b83811015610df0578151610dd78882610d55565b9750610de2836112ae565b925050600181019050610dc3565b5085935050505092915050565b6000610e08826112a3565b610e1281856112d9565b935083602082028501610e2485611288565b8060005b85811015610e605784840389528151610e418582610d6d565b9450610e4c836112bb565b925060208a01995050600181019050610e28565b50829750879550505050505092915050565b610e7b81611341565b82525050565b610e8a81611341565b82525050565b6000610e9d600e836112ea565b9150610ea88261142e565b602082019050919050565b6000610ec0601a836112ea565b9150610ecb82611457565b602082019050919050565b6000610ee3601f836112ea565b9150610eee82611480565b602082019050919050565b6000610f066016836112ea565b9150610f11826114a9565b602082019050919050565b6000610f29600f836112ea565b9150610f34826114d2565b602082019050919050565b6000610f4c6012836112ea565b9150610f57826114fb565b602082019050919050565b6000610f6f6019836112ea565b9150610f7a82611524565b602082019050919050565b6000610f926023836112ea565b9150610f9d8261154d565b604082019050919050565b606082016000820151610fbe6000850182611051565b506020820151610fd16020850182611051565b506040820151610fe46040850182610e72565b50505050565b600060208301600083015184820360008601526110078282610dfd565b9150508091505092915050565b600060408301600083015161102c6000860182610d81565b50602083015184820360208601526110448282610d9f565b9150508091505092915050565b61105a81611384565b82525050565b61106981611384565b82525050565b60006060820190506110846000830186610d90565b6110916020830185610d90565b61109e6040830184611060565b949350505050565b60006040820190506110bb6000830185610d90565b6110c86020830184611060565b9392505050565b60006020820190506110e46000830184610e81565b92915050565b6000602082019050818103600083015261110381610e90565b9050919050565b6000602082019050818103600083015261112381610eb3565b9050919050565b6000602082019050818103600083015261114381610ed6565b9050919050565b6000602082019050818103600083015261116381610ef9565b9050919050565b6000602082019050818103600083015261118381610f1c565b9050919050565b600060208201905081810360008301526111a381610f3f565b9050919050565b600060208201905081810360008301526111c381610f62565b9050919050565b600060208201905081810360008301526111e381610f85565b9050919050565b600060208201905081810360008301526112048184610fea565b905092915050565b60006020820190506112216000830184611060565b92915050565b6000611231611242565b905061123d828261138e565b919050565b6000604051905090565b600067ffffffffffffffff821115611267576112666113ee565b5b602082029050602081019050919050565b6000819050602082019050919050565b6000819050602082019050919050565b600081519050919050565b600081519050919050565b6000602082019050919050565b6000602082019050919050565b600082825260208201905092915050565b600082825260208201905092915050565b600082825260208201905092915050565b600061130682611384565b915061131183611384565b925082821015611324576113236113bf565b5b828203905092915050565b600061133a82611364565b9050919050565b60008115159050919050565b6000819050919050565b60008160010b9050919050565b600073ffffffffffffffffffffffffffffffffffffffff82169050919050565b6000819050919050565b6113978261141d565b810181811067ffffffffffffffff821117156113b6576113b56113ee565b5b80604052505050565b7f4e487b7100000000000000000000000000000000000000000000000000000000600052601160045260246000fd5b7f4e487b7100000000000000000000000000000000000000000000000000000000600052604160045260246000fd5b6000601f19601f8301169050919050565b7f5472616e73666572206572726f72000000000000000000000000000000000000600082015250565b7f7661756c7449642073686f756c6420626520706f736974697665000000000000600082015250565b7f43616e6e6f7420636c61696d206265666f726520746172676574206461746500600082015250565b7f546f6b656e20636f6e7472616374206973206e756c6c00000000000000000000600082015250565b7f416c726561647920636c61696d65640000000000000000000000000000000000600082015250565b7f4e6f7420616e20455243323020746f6b656e0000000000000000000000000000600082015250565b7f4461746520696e2074686520706173742073656c656374656400000000000000600082015250565b7f546f6b656e20636f756e74206d75737420626520706f736974697665206e756d60008201527f6265720000000000000000000000000000000000000000000000000000000000602082015250565b6115a58161132f565b81146115b057600080fd5b50565b6115bc81611341565b81146115c757600080fd5b50565b6115d38161134d565b81146115de57600080fd5b50565b6115ea81611357565b81146115f557600080fd5b50565b61160181611384565b811461160c57600080fd5b5056fea264697066735822122009de9d96f6c35c566a733bb2a641332e67d191f23153a1dfaa3ce655fbd96dd264736f6c63430008010033",
  "immutableReferences": {},
  "source": "// SPDX-License-Identifier: MIT\n\npragma solidity >=0.7.0 <0.9.0;\n\nimport \"./ERC20/IERC20.sol\";\nimport \"./SafeMath.sol\";\npragma experimental ABIEncoderV2;\n\ncontract Locker {\n    using SafeMath for uint256;\n\n    struct ReleaseCheckpoint {\n        uint256 tokensCount;\n        uint256 releaseTargetTimestamp;\n        bool claimed;\n    }\n\n    struct VestedTokenVault {\n        address tokenAddress;\n        ReleaseCheckpoint[] checkpoints;\n    }\n\n    struct UserLocks {\n        VestedTokenVault[] userVaults;\n    }\n\n    //every user has multiple vaults: he can store any token with different release schedules. \n    //Token might be duplicated, e.g. Vault1: USDC with 6 months lock + Vault2: USDC with 12 months lock\n    mapping(address => UserLocks) userLocks;\n\n    function lock(\n        uint256 targetTimestamp,\n        address tokenContract,\n        uint256 tokenCount\n    ) public returns (uint256) {\n        require(targetTimestamp > block.timestamp, \"Date in the past selected\");\n        require(tokenCount > 0, \"Token count must be positive number\");\n        require(tokenContract != address(0), \"Token contract is null\");\n\n        //push new element to user's vault and get it's index\n        userLocks[msg.sender].userVaults.push();\n        uint vaultIndex = userLocks[msg.sender].userVaults.length - 1;\n\n        //create release checkpoint to created vault \n        userLocks[msg.sender].userVaults[vaultIndex].checkpoints.push();\n\n        //get created user Vault by index\n        VestedTokenVault storage targetVault = userLocks[msg.sender].userVaults[vaultIndex];\n        //uint checkpointsIndex = targetVault.checkpoints.length - 1;\n\n        //get checkpoint, in this this case here will be only one element\n        ReleaseCheckpoint storage checkpoint = targetVault.checkpoints[0];\n        \n        //fill input data   \n        targetVault.tokenAddress = tokenContract;\n        checkpoint.tokensCount = tokenCount;\n        checkpoint.releaseTargetTimestamp = targetTimestamp;\n        checkpoint.claimed = false;\n\n        //transfer token to vault\n        try IERC20(tokenContract).transferFrom(msg.sender, address(this), tokenCount) returns (bool) {\n            return vaultIndex;\n        } catch (bytes memory) {\n            revert(\"Not an ERC20 token\");\n        }\n    }\n\n    function lockWithLinearRelease(\n        uint256 targetBlockRelease,\n        address tokenContract,\n        uint256 tokenCount,\n        int16 checkpoints\n    ) public {}\n\n    function lockWithScheduledRelease(\n        address tokenContract,\n        bytes32[] memory checkpoints\n    ) public {}\n\n    function claimAll() public {}\n\n    function claimToken(address token) public {}\n\n    function claimByVaultId(uint vaultId) public returns (bool) {\n        require(vaultId >= 0, \"vaultId should be positive\");\n\n        VestedTokenVault storage vault = userLocks[msg.sender].userVaults[vaultId];\n        ReleaseCheckpoint storage checkpoint = vault.checkpoints[0];\n\n        require(checkpoint.claimed == false, \"Already claimed\");\n        require(checkpoint.releaseTargetTimestamp <= block.timestamp, \"Cannot claim before target date\");\n        \n        try \n            IERC20(vault.tokenAddress).transfer(msg.sender, checkpoint.tokensCount)\n        returns (bool) {\n            checkpoint.claimed = true;\n            return true;\n        } catch (bytes memory) {\n            revert(\"Transfer error\");\n        }\n    }\n\n    function getUserVaults(address userAddress)\n        public\n        view\n        returns (UserLocks memory)\n    {\n        return userLocks[userAddress];\n    }\n}\n",
  "sourcePath": "/Users/kirill/Desktop/Terra/frontend/ethereum/contracts/Locker.sol",
  "compiler": {
    "name": "solc",
    "version": "0.8.1+commit.df193b15.Emscripten.clang"
  },
  "schemaVersion": "3.4.0",
  "updatedAt": "2021-06-18T19:51:23.012Z",
  "networkType": "ethereum",
  "devdoc": {
    "kind": "dev",
    "methods": {},
    "version": 1
  },
  "userdoc": {
    "kind": "user",
    "methods": {},
    "version": 1
  }
}