{
  "contractName": "Locker",
  "abi": [
    {
      "inputs": [
        {
          "internalType": "uint256",
          "name": "targetTimestamp",
          "type": "uint256"
        },
        {
          "internalType": "address",
          "name": "tokenContract",
          "type": "address"
        },
        {
          "internalType": "uint256",
          "name": "tokenCount",
          "type": "uint256"
        }
      ],
      "name": "lock",
      "outputs": [
        {
          "internalType": "uint256",
          "name": "",
          "type": "uint256"
        }
      ],
      "stateMutability": "nonpayable",
      "type": "function"
    },
    {
      "inputs": [
        {
          "internalType": "uint256",
          "name": "targetTimestamp",
          "type": "uint256"
        }
      ],
      "name": "lockNativeCurrency",
      "outputs": [],
      "stateMutability": "payable",
      "type": "function",
      "payable": true
    },
    {
      "inputs": [
        {
          "internalType": "uint256",
          "name": "vaultId",
          "type": "uint256"
        }
      ],
      "name": "claimByVaultId",
      "outputs": [
        {
          "internalType": "bool",
          "name": "",
          "type": "bool"
        }
      ],
      "stateMutability": "payable",
      "type": "function",
      "payable": true
    },
    {
      "inputs": [
        {
          "internalType": "address",
          "name": "userAddress",
          "type": "address"
        }
      ],
      "name": "getUserVaults",
      "outputs": [
        {
          "components": [
            {
              "components": [
                {
                  "internalType": "address",
                  "name": "tokenAddress",
                  "type": "address"
                },
                {
                  "internalType": "bool",
                  "name": "nativeToken",
                  "type": "bool"
                },
                {
                  "components": [
                    {
                      "internalType": "uint256",
                      "name": "tokensCount",
                      "type": "uint256"
                    },
                    {
                      "internalType": "uint256",
                      "name": "releaseTargetTimestamp",
                      "type": "uint256"
                    },
                    {
                      "internalType": "bool",
                      "name": "claimed",
                      "type": "bool"
                    }
                  ],
                  "internalType": "struct Locker.ReleaseCheckpoint[]",
                  "name": "checkpoints",
                  "type": "tuple[]"
                }
              ],
              "internalType": "struct Locker.VestedTokenVault[]",
              "name": "userVaults",
              "type": "tuple[]"
            }
          ],
          "internalType": "struct Locker.UserLocks",
          "name": "",
          "type": "tuple"
        }
      ],
      "stateMutability": "view",
      "type": "function",
      "constant": true
    }
  ],
  "bytecode": "0x608060405234801561001057600080fd5b5061171c806100206000396000f3fe60806040526004361061003f5760003560e01c80631e5e285c14610044578063aefaa39714610074578063cf27cfc414610090578063e7f3c69c146100cd575b600080fd5b61005e60048036038101906100599190610ea8565b61010a565b60405161006b91906112ad565b60405180910390f35b61008e60048036038101906100899190610ea8565b6104c9565b005b34801561009c57600080fd5b506100b760048036038101906100b29190610ed1565b61078f565b6040516100c491906113ea565b60405180910390f35b3480156100d957600080fd5b506100f460048036038101906100ef9190610e56565b610c4e565b60405161010191906113c8565b60405180910390f35b60008082101561014f576040517f08c379a0000000000000000000000000000000000000000000000000000000008152600401610146906112e8565b60405180910390fd5b60008060003373ffffffffffffffffffffffffffffffffffffffff1673ffffffffffffffffffffffffffffffffffffffff16815260200190815260200160002060000183815481106101ca577f4e487b7100000000000000000000000000000000000000000000000000000000600052603260045260246000fd5b90600052602060002090600202019050600081600101600081548110610219577f4e487b7100000000000000000000000000000000000000000000000000000000600052603260045260246000fd5b90600052602060002090600302019050600015158160020160009054906101000a900460ff16151514610281576040517f08c379a000000000000000000000000000000000000000000000000000000000815260040161027890611348565b60405180910390fd5b42816001015411156102c8576040517f08c379a00000000000000000000000000000000000000000000000000000000081526004016102bf90611308565b60405180910390fd5b8160000160149054906101000a900460ff1615610379573373ffffffffffffffffffffffffffffffffffffffff166108fc83600101600081548110610336577f4e487b7100000000000000000000000000000000000000000000000000000000600052603260045260246000fd5b9060005260206000209060030201600001549081150290604051600060405180830381858888f19350505050158015610373573d6000803e3d6000fd5b506104c1565b8160000160009054906101000a900473ffffffffffffffffffffffffffffffffffffffff1673ffffffffffffffffffffffffffffffffffffffff1663a9059cbb3383600001546040518363ffffffff1660e01b81526004016103dc929190611284565b602060405180830381600087803b1580156103f657600080fd5b505af192505050801561042757506040513d601f19601f820116820180604052508101906104249190610e7f565b60015b610498573d8060008114610457576040519150601f19603f3d011682016040523d82523d6000602084013e61045c565b606091505b506040517f08c379a000000000000000000000000000000000000000000000000000000000815260040161048f906112c8565b60405180910390fd5b60018260020160006101000a81548160ff021916908315150217905550600193505050506104c4565b50505b919050565b42811161050b576040517f08c379a000000000000000000000000000000000000000000000000000000000815260040161050290611388565b60405180910390fd5b6000803373ffffffffffffffffffffffffffffffffffffffff1673ffffffffffffffffffffffffffffffffffffffff16815260200190815260200160002060000160018160018154018082558091505003906000526020600020905050600060016000803373ffffffffffffffffffffffffffffffffffffffff1673ffffffffffffffffffffffffffffffffffffffff168152602001908152602001600020600001805490506105bb9190611488565b90506000803373ffffffffffffffffffffffffffffffffffffffff1673ffffffffffffffffffffffffffffffffffffffff1681526020019081526020016000206000018181548110610636577f4e487b7100000000000000000000000000000000000000000000000000000000600052603260045260246000fd5b90600052602060002090600202016001016001816001815401808255809150500390600052602060002090505060008060003373ffffffffffffffffffffffffffffffffffffffff1673ffffffffffffffffffffffffffffffffffffffff16815260200190815260200160002060000182815481106106de577f4e487b7100000000000000000000000000000000000000000000000000000000600052603260045260246000fd5b9060005260206000209060020201905060008160010160008154811061072d577f4e487b7100000000000000000000000000000000000000000000000000000000600052603260045260246000fd5b9060005260206000209060030201905060018260000160146101000a81548160ff02191690831515021790555034816000018190555083816001018190555060008160020160006101000a81548160ff02191690831515021790555050505050565b60004284116107d3576040517f08c379a00000000000000000000000000000000000000000000000000000000081526004016107ca90611388565b60405180910390fd5b60008211610816576040517f08c379a000000000000000000000000000000000000000000000000000000000815260040161080d906113a8565b60405180910390fd5b600073ffffffffffffffffffffffffffffffffffffffff168373ffffffffffffffffffffffffffffffffffffffff161415610886576040517f08c379a000000000000000000000000000000000000000000000000000000000815260040161087d90611328565b60405180910390fd5b6000803373ffffffffffffffffffffffffffffffffffffffff1673ffffffffffffffffffffffffffffffffffffffff16815260200190815260200160002060000160018160018154018082558091505003906000526020600020905050600060016000803373ffffffffffffffffffffffffffffffffffffffff1673ffffffffffffffffffffffffffffffffffffffff168152602001908152602001600020600001805490506109369190611488565b90506000803373ffffffffffffffffffffffffffffffffffffffff1673ffffffffffffffffffffffffffffffffffffffff16815260200190815260200160002060000181815481106109b1577f4e487b7100000000000000000000000000000000000000000000000000000000600052603260045260246000fd5b90600052602060002090600202016001016001816001815401808255809150500390600052602060002090505060008060003373ffffffffffffffffffffffffffffffffffffffff1673ffffffffffffffffffffffffffffffffffffffff1681526020019081526020016000206000018281548110610a59577f4e487b7100000000000000000000000000000000000000000000000000000000600052603260045260246000fd5b90600052602060002090600202019050600081600101600081548110610aa8577f4e487b7100000000000000000000000000000000000000000000000000000000600052603260045260246000fd5b90600052602060002090600302019050858260000160006101000a81548173ffffffffffffffffffffffffffffffffffffffff021916908373ffffffffffffffffffffffffffffffffffffffff16021790555060008260000160146101000a81548160ff02191690831515021790555084816000018190555086816001018190555060008160020160006101000a81548160ff0219169083151502179055508573ffffffffffffffffffffffffffffffffffffffff166323b872dd3330886040518463ffffffff1660e01b8152600401610b849392919061124d565b602060405180830381600087803b158015610b9e57600080fd5b505af1925050508015610bcf57506040513d601f19601f82011682018060405250810190610bcc9190610e7f565b60015b610c40573d8060008114610bff576040519150601f19603f3d011682016040523d82523d6000602084013e610c04565b606091505b506040517f08c379a0000000000000000000000000000000000000000000000000000000008152600401610c3790611368565b60405180910390fd5b839450505050509392505050565b610c56610e04565b6000808373ffffffffffffffffffffffffffffffffffffffff1673ffffffffffffffffffffffffffffffffffffffff16815260200190815260200160002060405180602001604052908160008201805480602002602001604051908101604052809291908181526020016000905b82821015610df557838290600052602060002090600202016040518060600160405290816000820160009054906101000a900473ffffffffffffffffffffffffffffffffffffffff1673ffffffffffffffffffffffffffffffffffffffff1673ffffffffffffffffffffffffffffffffffffffff1681526020016000820160149054906101000a900460ff1615151515815260200160018201805480602002602001604051908101604052809291908181526020016000905b82821015610dde578382906000526020600020906003020160405180606001604052908160008201548152602001600182015481526020016002820160009054906101000a900460ff16151515158152505081526020019060010190610d7d565b505050508152505081526020019060010190610cc4565b50505050815250509050919050565b6040518060200160405280606081525090565b600081359050610e26816116a1565b92915050565b600081519050610e3b816116b8565b92915050565b600081359050610e50816116cf565b92915050565b600060208284031215610e6857600080fd5b6000610e7684828501610e17565b91505092915050565b600060208284031215610e9157600080fd5b6000610e9f84828501610e2c565b91505092915050565b600060208284031215610eba57600080fd5b6000610ec884828501610e41565b91505092915050565b600080600060608486031215610ee657600080fd5b6000610ef486828701610e41565b9350506020610f0586828701610e17565b9250506040610f1686828701610e41565b9150509250925092565b6000610f2c8383611173565b60608301905092915050565b6000610f4483836111df565b905092915050565b610f55816114bc565b82525050565b610f64816114bc565b82525050565b6000610f7582611425565b610f7f8185611455565b9350610f8a83611405565b8060005b83811015610fbb578151610fa28882610f20565b9750610fad8361143b565b925050600181019050610f8e565b5085935050505092915050565b6000610fd382611430565b610fdd8185611466565b935083602082028501610fef85611415565b8060005b8581101561102b578484038952815161100c8582610f38565b945061101783611448565b925060208a01995050600181019050610ff3565b50829750879550505050505092915050565b611046816114ce565b82525050565b611055816114ce565b82525050565b6000611068600e83611477565b915061107382611533565b602082019050919050565b600061108b601a83611477565b91506110968261155c565b602082019050919050565b60006110ae601f83611477565b91506110b982611585565b602082019050919050565b60006110d1601683611477565b91506110dc826115ae565b602082019050919050565b60006110f4600f83611477565b91506110ff826115d7565b602082019050919050565b6000611117601283611477565b915061112282611600565b602082019050919050565b600061113a601983611477565b915061114582611629565b602082019050919050565b600061115d602383611477565b915061116882611652565b604082019050919050565b606082016000820151611189600085018261122f565b50602082015161119c602085018261122f565b5060408201516111af604085018261103d565b50505050565b600060208301600083015184820360008601526111d28282610fc8565b9150508091505092915050565b60006060830160008301516111f76000860182610f4c565b50602083015161120a602086018261103d565b50604083015184820360408601526112228282610f6a565b9150508091505092915050565b611238816114fa565b82525050565b611247816114fa565b82525050565b60006060820190506112626000830186610f5b565b61126f6020830185610f5b565b61127c604083018461123e565b949350505050565b60006040820190506112996000830185610f5b565b6112a6602083018461123e565b9392505050565b60006020820190506112c2600083018461104c565b92915050565b600060208201905081810360008301526112e18161105b565b9050919050565b600060208201905081810360008301526113018161107e565b9050919050565b60006020820190508181036000830152611321816110a1565b9050919050565b60006020820190508181036000830152611341816110c4565b9050919050565b60006020820190508181036000830152611361816110e7565b9050919050565b600060208201905081810360008301526113818161110a565b9050919050565b600060208201905081810360008301526113a18161112d565b9050919050565b600060208201905081810360008301526113c181611150565b9050919050565b600060208201905081810360008301526113e281846111b5565b905092915050565b60006020820190506113ff600083018461123e565b92915050565b6000819050602082019050919050565b6000819050602082019050919050565b600081519050919050565b600081519050919050565b6000602082019050919050565b6000602082019050919050565b600082825260208201905092915050565b600082825260208201905092915050565b600082825260208201905092915050565b6000611493826114fa565b915061149e836114fa565b9250828210156114b1576114b0611504565b5b828203905092915050565b60006114c7826114da565b9050919050565b60008115159050919050565b600073ffffffffffffffffffffffffffffffffffffffff82169050919050565b6000819050919050565b7f4e487b7100000000000000000000000000000000000000000000000000000000600052601160045260246000fd5b7f5472616e73666572206572726f72000000000000000000000000000000000000600082015250565b7f7661756c7449642073686f756c6420626520706f736974697665000000000000600082015250565b7f43616e6e6f7420636c61696d206265666f726520746172676574206461746500600082015250565b7f546f6b656e20636f6e7472616374206973206e756c6c00000000000000000000600082015250565b7f416c726561647920636c61696d65640000000000000000000000000000000000600082015250565b7f4e6f7420616e20455243323020746f6b656e0000000000000000000000000000600082015250565b7f4461746520696e2074686520706173742073656c656374656400000000000000600082015250565b7f546f6b656e20636f756e74206d75737420626520706f736974697665206e756d60008201527f6265720000000000000000000000000000000000000000000000000000000000602082015250565b6116aa816114bc565b81146116b557600080fd5b50565b6116c1816114ce565b81146116cc57600080fd5b50565b6116d8816114fa565b81146116e357600080fd5b5056fea2646970667358221220294aae8ff4934ff4da2195cb60b9aa753fd4dece56781720bb77b39fcae6fd6a64736f6c63430008010033",
  "immutableReferences": {},
  "source": "// SPDX-License-Identifier: MIT\n\npragma solidity >=0.7.0 <0.9.0;\n\nimport \"./IERC20.sol\";\nimport \"./SafeMath.sol\";\n\ncontract Locker {\n    using SafeMath for uint256;\n\n    struct ReleaseCheckpoint {\n        uint256 tokensCount;\n        uint256 releaseTargetTimestamp;\n        bool claimed;\n    }\n\n    struct VestedTokenVault {\n        address tokenAddress;\n        //ETH for ethereum, BNB for BSC, AVAX for AVA c-chain\n        bool nativeToken;\n        ReleaseCheckpoint[] checkpoints;\n    }\n\n    struct UserLocks {\n        VestedTokenVault[] userVaults;\n    }\n\n    //every user has multiple vaults: he can store any token with different release schedules.\n    //Token might be duplicated, e.g. Vault1: USDC with 6 months lock + Vault2: USDC with 12 months lock\n    mapping(address => UserLocks) userLocks;\n\n    function lock(\n        uint256 targetTimestamp,\n        address tokenContract,\n        uint256 tokenCount\n    ) public returns (uint256) {\n        require(targetTimestamp > block.timestamp, \"Date in the past selected\");\n        require(tokenCount > 0, \"Token count must be positive number\");\n        require(tokenContract != address(0), \"Token contract is null\");\n\n        //push new element to user's vault and get it's index\n        userLocks[msg.sender].userVaults.push();\n        uint256 vaultIndex = userLocks[msg.sender].userVaults.length - 1;\n\n        //create release checkpoint to created vault\n        userLocks[msg.sender].userVaults[vaultIndex].checkpoints.push();\n\n        //get created user Vault by index\n        VestedTokenVault storage targetVault = userLocks[msg.sender].userVaults[\n            vaultIndex\n        ];\n\n        //get checkpoint, in this this case here will be only one element\n        ReleaseCheckpoint storage checkpoint = targetVault.checkpoints[0];\n\n        //fill input data\n        targetVault.tokenAddress = tokenContract;\n        targetVault.nativeToken = false;\n        checkpoint.tokensCount = tokenCount;\n        checkpoint.releaseTargetTimestamp = targetTimestamp;\n        checkpoint.claimed = false;\n\n        //transfer token to vault\n        try\n            IERC20(tokenContract).transferFrom(\n                msg.sender,\n                address(this),\n                tokenCount\n            )\n        returns (bool) {\n            return vaultIndex;\n        } catch (bytes memory) {\n            revert(\"Not an ERC20 token\");\n        }\n    }\n\n    function lockNativeCurrency(uint256 targetTimestamp) public payable {\n        require(targetTimestamp > block.timestamp, \"Date in the past selected\");\n\n        //push new element to user's vault and get it's index\n        userLocks[msg.sender].userVaults.push();\n        uint256 vaultIndex = userLocks[msg.sender].userVaults.length - 1;\n\n        //create release checkpoint to created vault\n        userLocks[msg.sender].userVaults[vaultIndex].checkpoints.push();\n\n        //get created user Vault by index\n        VestedTokenVault storage targetVault = userLocks[msg.sender].userVaults[\n            vaultIndex\n        ];\n\n        //get checkpoint, in this this case here will be only one element\n        ReleaseCheckpoint storage checkpoint = targetVault.checkpoints[0];\n\n        targetVault.nativeToken = true;\n        checkpoint.tokensCount = msg.value;\n        checkpoint.releaseTargetTimestamp = targetTimestamp;\n        checkpoint.claimed = false;\n    }\n\n    // function lockWithLinearRelease(\n    //     uint256 targetBlockRelease,\n    //     address tokenContract,\n    //     uint256 tokenCount,\n    //     int16 checkpoints\n    // ) public {}\n\n    // function lockWithScheduledRelease(\n    //     address tokenContract,\n    //     bytes32[] memory checkpoints\n    // ) public {}\n\n    // function claimAll() public {}\n\n    // function claimToken(address token) public {}\n\n    function claimByVaultId(uint256 vaultId) public payable returns (bool) {\n        require(vaultId >= 0, \"vaultId should be positive\");\n\n        VestedTokenVault storage vault = userLocks[msg.sender].userVaults[\n            vaultId\n        ];\n        ReleaseCheckpoint storage checkpoint = vault.checkpoints[0];\n\n        require(checkpoint.claimed == false, \"Already claimed\");\n        require(\n            checkpoint.releaseTargetTimestamp <= block.timestamp,\n            \"Cannot claim before target date\"\n        );\n\n        if (vault.nativeToken) {\n            payable(msg.sender).transfer(\n                vault.checkpoints[0].tokensCount\n            );\n        } else {\n            try\n                IERC20(vault.tokenAddress).transfer(\n                    msg.sender,\n                    checkpoint.tokensCount\n                )\n            returns (bool) {\n                checkpoint.claimed = true;\n                return true;\n            } catch (bytes memory) {\n                revert(\"Transfer error\");\n            }\n        }\n    }\n\n    function getUserVaults(address userAddress)\n        public\n        view\n        returns (UserLocks memory)\n    {\n        return userLocks[userAddress];\n    }\n}\n",
  "sourcePath": "/Users/kirill/Desktop/Terra/frontend/ethereum/contracts/Locker.sol",
  "compiler": {
    "name": "solc",
    "version": "0.8.1+commit.df193b15.Emscripten.clang"
  },
  "schemaVersion": "3.4.0",
  "updatedAt": "2021-08-31T10:45:09.699Z",
  "networkType": "ethereum",
  "devdoc": {
    "kind": "dev",
    "methods": {},
    "version": 1
  },
  "userdoc": {
    "kind": "user",
    "methods": {},
    "version": 1
  }
}